{
  "_format": "hh-sol-artifact-1",
  "contractName": "TokenSwap",
  "sourceName": "contracts/TokenSwap.sol",
  "abi": [
    {
      "inputs": [],
      "stateMutability": "nonpayable",
      "type": "constructor"
    },
    {
      "inputs": [],
      "name": "poolFee",
      "outputs": [
        {
          "internalType": "uint24",
          "name": "",
          "type": "uint24"
        }
      ],
      "stateMutability": "view",
      "type": "function"
    },
    {
      "inputs": [],
      "name": "routerAddress",
      "outputs": [
        {
          "internalType": "address",
          "name": "",
          "type": "address"
        }
      ],
      "stateMutability": "view",
      "type": "function"
    },
    {
      "inputs": [
        {
          "internalType": "address",
          "name": "tokenIn",
          "type": "address"
        },
        {
          "internalType": "address",
          "name": "tokenOut",
          "type": "address"
        },
        {
          "internalType": "uint256",
          "name": "amountIn",
          "type": "uint256"
        }
      ],
      "name": "swapExactInputSingle",
      "outputs": [
        {
          "internalType": "uint256",
          "name": "amountOut",
          "type": "uint256"
        }
      ],
      "stateMutability": "nonpayable",
      "type": "function"
    },
    {
      "inputs": [
        {
          "internalType": "address",
          "name": "tokenIn",
          "type": "address"
        },
        {
          "internalType": "address",
          "name": "tokenOut",
          "type": "address"
        },
        {
          "internalType": "uint256",
          "name": "amountOut",
          "type": "uint256"
        },
        {
          "internalType": "uint256",
          "name": "amountInMaximum",
          "type": "uint256"
        }
      ],
      "name": "swapExactOutputSingle",
      "outputs": [
        {
          "internalType": "uint256",
          "name": "amountIn",
          "type": "uint256"
        }
      ],
      "stateMutability": "nonpayable",
      "type": "function"
    },
    {
      "inputs": [],
      "name": "swapRouter",
      "outputs": [
        {
          "internalType": "contract ISwapRouter",
          "name": "",
          "type": "address"
        }
      ],
      "stateMutability": "view",
      "type": "function"
    }
  ],
  "bytecode": "0x60a060405273e592427a0aece92de3edee1f18e0157c0586156473ffffffffffffffffffffffffffffffffffffffff1660809073ffffffffffffffffffffffffffffffffffffffff1681525034801561005757600080fd5b50608051610cc261008f6000396000818161021301528181610333015281816104650152818161056701526106880152610cc26000f3fe608060405234801561001057600080fd5b50600436106100575760003560e01c8063089fe6aa1461005c5780633268cc561461007a578063bc96faa914610098578063c31c9c07146100c8578063ceb92012146100e6575b600080fd5b610064610116565b604051610071919061074b565b60405180910390f35b61008261011b565b60405161008f91906107a7565b60405180910390f35b6100b260048036038101906100ad9190610829565b610133565b6040516100bf919061089f565b60405180910390f35b6100d0610463565b6040516100dd9190610919565b60405180910390f35b61010060048036038101906100fb9190610934565b610487565b60405161010d919061089f565b60405180910390f35b600381565b73e592427a0aece92de3edee1f18e0157c0586156481565b600080859050828173ffffffffffffffffffffffffffffffffffffffff166370a08231336040518263ffffffff1660e01b815260040161017391906107a7565b602060405180830381865afa158015610190573d6000803e3d6000fd5b505050506040513d601f19601f820116820180604052508101906101b4919061099c565b10156101f5576040517f08c379a00000000000000000000000000000000000000000000000000000000081526004016101ec90610a26565b60405180910390fd5b8073ffffffffffffffffffffffffffffffffffffffff1663095ea7b37f0000000000000000000000000000000000000000000000000000000000000000856040518363ffffffff1660e01b8152600401610250929190610a46565b6020604051808303816000875af115801561026f573d6000803e3d6000fd5b505050506040513d601f19601f820116820180604052508101906102939190610aa7565b5060006040518061010001604052808873ffffffffffffffffffffffffffffffffffffffff1681526020018773ffffffffffffffffffffffffffffffffffffffff168152602001600362ffffff1681526020013373ffffffffffffffffffffffffffffffffffffffff168152602001428152602001868152602001858152602001600073ffffffffffffffffffffffffffffffffffffffff1681525090507f000000000000000000000000000000000000000000000000000000000000000073ffffffffffffffffffffffffffffffffffffffff1663db3e2198826040518263ffffffff1660e01b815260040161038a9190610bb2565b6020604051808303816000875af11580156103a9573d6000803e3d6000fd5b505050506040513d601f19601f820116820180604052508101906103cd919061099c565b925083831015610459578173ffffffffffffffffffffffffffffffffffffffff1663a9059cbb338587036040518363ffffffff1660e01b8152600401610414929190610a46565b6020604051808303816000875af1158015610433573d6000803e3d6000fd5b505050506040513d601f19601f820116820180604052508101906104579190610aa7565b505b5050949350505050565b7f000000000000000000000000000000000000000000000000000000000000000081565b600080849050828173ffffffffffffffffffffffffffffffffffffffff166370a08231336040518263ffffffff1660e01b81526004016104c791906107a7565b602060405180830381865afa1580156104e4573d6000803e3d6000fd5b505050506040513d601f19601f82011682018060405250810190610508919061099c565b1015610549576040517f08c379a000000000000000000000000000000000000000000000000000000000815260040161054090610a26565b60405180910390fd5b8073ffffffffffffffffffffffffffffffffffffffff1663095ea7b37f0000000000000000000000000000000000000000000000000000000000000000856040518363ffffffff1660e01b81526004016105a4929190610a46565b6020604051808303816000875af11580156105c3573d6000803e3d6000fd5b505050506040513d601f19601f820116820180604052508101906105e79190610aa7565b5060006040518061010001604052808773ffffffffffffffffffffffffffffffffffffffff1681526020018673ffffffffffffffffffffffffffffffffffffffff168152602001600362ffffff1681526020013373ffffffffffffffffffffffffffffffffffffffff16815260200142815260200185815260200160008152602001600073ffffffffffffffffffffffffffffffffffffffff1681525090507f000000000000000000000000000000000000000000000000000000000000000073ffffffffffffffffffffffffffffffffffffffff1663414bf389826040518263ffffffff1660e01b81526004016106df9190610c70565b6020604051808303816000875af11580156106fe573d6000803e3d6000fd5b505050506040513d601f19601f82011682018060405250810190610722919061099c565b925050509392505050565b600062ffffff82169050919050565b6107458161072d565b82525050565b6000602082019050610760600083018461073c565b92915050565b600073ffffffffffffffffffffffffffffffffffffffff82169050919050565b600061079182610766565b9050919050565b6107a181610786565b82525050565b60006020820190506107bc6000830184610798565b92915050565b600080fd5b6107d081610786565b81146107db57600080fd5b50565b6000813590506107ed816107c7565b92915050565b6000819050919050565b610806816107f3565b811461081157600080fd5b50565b600081359050610823816107fd565b92915050565b60008060008060808587031215610843576108426107c2565b5b6000610851878288016107de565b9450506020610862878288016107de565b935050604061087387828801610814565b925050606061088487828801610814565b91505092959194509250565b610899816107f3565b82525050565b60006020820190506108b46000830184610890565b92915050565b6000819050919050565b60006108df6108da6108d584610766565b6108ba565b610766565b9050919050565b60006108f1826108c4565b9050919050565b6000610903826108e6565b9050919050565b610913816108f8565b82525050565b600060208201905061092e600083018461090a565b92915050565b60008060006060848603121561094d5761094c6107c2565b5b600061095b868287016107de565b935050602061096c868287016107de565b925050604061097d86828701610814565b9150509250925092565b600081519050610996816107fd565b92915050565b6000602082840312156109b2576109b16107c2565b5b60006109c084828501610987565b91505092915050565b600082825260208201905092915050565b7f496e73756666696369656e742062616c616e6365000000000000000000000000600082015250565b6000610a106014836109c9565b9150610a1b826109da565b602082019050919050565b60006020820190508181036000830152610a3f81610a03565b9050919050565b6000604082019050610a5b6000830185610798565b610a686020830184610890565b9392505050565b60008115159050919050565b610a8481610a6f565b8114610a8f57600080fd5b50565b600081519050610aa181610a7b565b92915050565b600060208284031215610abd57610abc6107c2565b5b6000610acb84828501610a92565b91505092915050565b610add81610786565b82525050565b610aec8161072d565b82525050565b610afb816107f3565b82525050565b610b0a81610766565b82525050565b61010082016000820151610b276000850182610ad4565b506020820151610b3a6020850182610ad4565b506040820151610b4d6040850182610ae3565b506060820151610b606060850182610ad4565b506080820151610b736080850182610af2565b5060a0820151610b8660a0850182610af2565b5060c0820151610b9960c0850182610af2565b5060e0820151610bac60e0850182610b01565b50505050565b600061010082019050610bc86000830184610b10565b92915050565b61010082016000820151610be56000850182610ad4565b506020820151610bf86020850182610ad4565b506040820151610c0b6040850182610ae3565b506060820151610c1e6060850182610ad4565b506080820151610c316080850182610af2565b5060a0820151610c4460a0850182610af2565b5060c0820151610c5760c0850182610af2565b5060e0820151610c6a60e0850182610b01565b50505050565b600061010082019050610c866000830184610bce565b9291505056fea2646970667358221220c08444a520712dbb498ae9b1524c47fe79b387719054959f5e5cc28087ebe3d764736f6c634300081b0033",
  "linkReferences": {},
  "deployedLinkReferences": {}
}